39900000         276659820000151051462              00000 0000000000000 APC PIBIC                     HSBC BANK BRASIL S.A.                   12112201511265700000002001600CPGY2K SFW 10.10                                                     
39900011C3001020 276659820000151090565              00000 0000000000000 APC PIBIC                                                                                                                                   00000000                    
3990002300001A00070010400375 0001000297508 ACIR BRITO FILHO              01401601040001      05012016R$                  0000000040000N                                                                                              0          
3990003300002B   100085575615987                                                                                                                                                                                                                
3990004300003A00070000101443 0000000240095 ADRIAN MOHAMED NUNES AMARAL   01401600010003      05012016R$                  0000000040000N                                                                                              0          
3990005300004B   100001496975200                                                                                                                                                                                                                
3990006300005A00070003303889 0000010460865 AGOSTINHO LUIZ SILVESTRI NETO 01401600330005      05012016R$                  0000000040000N                                                                                              0          
3990007300006B   100007573160933                                                                                                                                                                                                                
3990008300007A00070000100587 0000000730084 ALESSON DIEGO SPEROTTO        01401600010007      05012016R$                  0000000040000N                                                                                              0          
3990009300008B   100007246376992                                                                                                                                                                                                                
3990010300009A00070034107407 0000000011241 ALICE BUACHAK GOMES           01401603410009      05012016R$                  0000000040000N                                                                                              0          
3990011300010B   100007450568900                                                                                                                                                                                                                
3990012300011A00070034100616 0000000234126 ALINE ALVES CARNEIRO          01401603410011      05012016R$                  0000000040000N                                                                                              0          
3990013300012B   100009329586996                                                                                                                                                                                                                
3990014300013A000   39901748 0017480362801 ALINE CUBAS DE SOUZA          01401603990013      05012016R$                  0000000040000N                                                                                              0          
3990015300014B   100009680983986                                                                                                                                                                                                                
3990016300015A00070034108269 0000000217405 ALINE GARCIA FERRARI          01401603410015      05012016R$                  0000000040000N                                                                                              0          
3990017300016B   100003390570179                                                                                                                                                                                                                
3990018300017A00070003302044 0000010095593 AMANDA COSTA CASTILHANO       01401600330017      05012016R$                  0000000040000N                                                                                              0          
3990019300018B   100007965625989                                                                                                                                                                                                                
3990020300019A000   39900054 0000542489767 AMANDA LUIZA STROPARO         01401603990019      05012016R$                  0000000040000N                                                                                              0          
3990021300020B   100008799622912                                                                                                                                                                                                                
3990022300021A00070023706021 0000000025275 AMANDA PEREIRA AGOSTINHO      01401602370021      05012016R$                  0000000040000N                                                                                              0          
3990023300022B   100010824859936                                                                                                                                                                                                                
3990024300023A00070010403379 0023000070830 AMANDA SAMUJEDEN DA SILVA     01401601040023      05012016R$                  0000000040000N                                                                                              0          
3990025300024B   100009804100967                                                                                                                                                                                                                
3990026300025A00070023701197 0000000557250 AMARILDO SIQUEIRA JUNIOR      01401602370025      05012016R$                  0000000040000N                                                                                              0          
3990027300026B   100038164109878                                                                                                                                                                                                                
3990028300027A000   39901996 0019960215523 ANA CAROLINA BARBOSA PAVAN    01401603990027      05012016R$                  0000000040000N                                                                                              0          
3990029300028B   100005798104966                                                                                                                                                                                                                
3990030300029A00070034100942 0000000437476 ANA CAROLINA DA SILVA         01401603410029      05012016R$                  0000000040000N                                                                                              0          
3990031300030B   100007856974974                                                                                                                                                                                                                
3990032300031A00070000103792 0000000380830 ANA CAROLINA DA SILVA DE ALMEI01401600010031      05012016R$                  0000000040000N                                                                                              0          
3990033300032B   100004861715903                                                                                                                                                                                                                
3990034300033A00070034103837 0000000407554 ANA CAROLINA KARESCOSKI BORGES01401603410033      05012016R$                  0000000040000N                                                                                              0          
3990035300034B   100008811271916                                                                                                                                                                                                                
3990036300035A00070000101729 0000000131725 ANA PAULA VIEIRA FARIA        01401600010035      05012016R$                  0000000040000N                                                                                              0          
3990037300036B   100044291969821                                                                                                                                                                                                                
3990038300037A00070034100273 0000000220574 ANDRE HARTMANN                01401603410037      05012016R$                  0000000040000N                                                                                              0          
3990039300038B   100007725106952                                                                                                                                                                                                                
3990040300039A00070000104205 0000000195685 ANDRE LUIS DA SILVA           01401600010039      05012016R$                  0000000040000N                                                                                              0          
3990041300040B   100001865356190                                                                                                                                                                                                                
3990042300041A00070000103020 0000000336688 ANDRE LUIS KARPEN             01401600010041      05012016R$                  0000000040000N                                                                                              0          
3990043300042B   100008615515913                                                                                                                                                                                                                
3990044300043A00070010402155 0001000210118 ANDRESSA DE ANDRADE           01401601040043      05012016R$                  0000000040000N                                                                                              0          
3990045300044B   100010077801938                                                                                                                                                                                                                
3990046300045A000   39901748 0017480362330 ANDRESSA KUDIESS              01401603990045      05012016R$                  0000000040000N                                                                                              0          
3990047300046B   100005437108150                                                                                                                                                                                                                
3990048300047A000   39901748 0017480289403 ANDREY ALVES KOCHAKE          01401603990047      05012016R$                  0000000040000N                                                                                              0          
3990049300048B   100006165054935                                                                                                                                                                                                                
3990050300049A00070034103720 0000000234065 ANGELA CRISTINA DA FONSECA DE 01401603410049      05012016R$                  0000000040000N                                                                                              0          
3990051300050B   100009512783983                                                                                                                                                                                                                
3990052300051A00070034106140 0000000259570 ANGELA CRISTINA EYNG          01401603410051      05012016R$                  0000000040000N                                                                                              0          
3990053300052B   100013936334714                                                                                                                                                                                                                
3990054300053A00070000100756 0000000736155 ANGELA TERESINHA RANK         01401600010053      05012016R$                  0000000040000N                                                                                              0          
3990055300054B   100075710595934                                                                                                                                                                                                                
3990056300055A000   39900054 0000541133292 ANGELO ANTONIO BARRETTO CRISTO01401603990055      05012016R$                  0000000040000N                                                                                              0          
3990057300056B   100082838445049                                                                                                                                                                                                                
3990058300057A00070003302256 0000010077244 ANILA COSTA VELHO             01401600330057      05012016R$                  0000000040000N                                                                                              0          
3990059300058B   100007853027940                                                                                                                                                                                                                
3990060300059A00070000103273 0000000147400 ANNE CAROLINE COBBE DE FREITAS01401600010059      05012016R$                  0000000040000N                                                                                              0          
3990061300060B   100005939957919                                                                                                                                                                                                                
3990062300061A00070023706519 0000000013609 AUGUSTO FAZZI COSTA           01401602370061      05012016R$                  0000000040000N                                                                                              0          
3990063300062B   100007457222960                                                                                                                                                                                                                
3990064300063A00070000101522 0000000319805 AUREA E OM SPRICIGO SIQUEIRA  01401600010063      05012016R$                  0000000040000N                                                                                              0          
3990065300064B   100008894340937                                                                                                                                                                                                                
3990066300065A00070000103262 0000000268801 BARBARA NATALIA RODRIGUES     01401600010065      05012016R$                  0000000040000N                                                                                              0          
3990067300066B   100009088665931                                                                                                                                                                                                                
3990068300067A000   39900125 0001250120150 BEATRIZ CRISTINA DE GOES      01401603990067      05012016R$                  0000000040000N                                                                                              0          
3990069300068B   100009530295901                                                                                                                                                                                                                
3990070300069A00070000102920 0000000302791 BERNARDO LUIS TULESKI         01401600010069      05012016R$                  0000000040000N                                                                                              0          
3990071300070B   100010141710918                                                                                                                                                                                                                
3990072300071A00070003301236 0000010032293 BIANCA BORGES CABRAL          01401600330071      05012016R$                  0000000040000N                                                                                              0          
3990073300072B   100010395044936                                                                                                                                                                                                                
3990074300073A00070034103704 0000000195001 BIANCA DOMIT WERNER LINNENKAMP01401603410073      05012016R$                  0000000040000N                                                                                              0          
3990075300074B   100008173337977                                                                                                                                                                                                                
3990076300075A00070010400368 0001000690325 BIANCA ROSA NEVES TONIETTO    01401601040075      05012016R$                  0000000040000N                                                                                              0          
3990077300076B   100009485525907                                                                                                                                                                                                                
3990078300077A00070034100615 0000000056165 BRUNA CAROLINA CATANI LOPES   01401603410077      05012016R$                  0000000040000N                                                                                              0          
3990079300078B   100004354063964                                                                                                                                                                                                                
3990080300079A00070023700585 0000000560618 BRUNA SCHAIDT                 01401602370079      05012016R$                  0000000040000N                                                                                              0          
3990081300080B   100009357985956                                                                                                                                                                                                                
3990082300081A00070000101432 0000000351482 BRUNA SILVA SANTOS            01401600010081      05012016R$                  0000000040000N                                                                                              0          
3990083300082B   100009680641910                                                                                                                                                                                                                
3990084300083A00070010402864 0001000055800 BRUNA TAYSE PEREIRA DOS SANTOS01401601040083      05012016R$                  0000000040000N                                                                                              0          
3990085300084B   100008464768940                                                                                                                                                                                                                
3990086300085A00070034104014 0000000606448 BRUNA WERLANG PAIM            01401603410085      05012016R$                  0000000040000N                                                                                              0          
3990087300086B   100008586595900                                                                                                                                                                                                                
3990088300087A00070010403557 0001000217803 BRUNO BASTOS                  01401601040087      05012016R$                  0000000040000N                                                                                              0          
3990089300088B   100007796287992                                                                                                                                                                                                                
3990090300089A00070000101265 0000000178497 BRUNO GUSTAVO DOMACOSKI       01401600010089      05012016R$                  0000000040000N                                                                                              0          
3990091300090B   100007552494964                                                                                                                                                                                                                
3990092300091A00070000106992 0000000078875 BRUNO MACHUCA THON            01401600010091      05012016R$                  0000000040000N                                                                                              0          
3990093300092B   100005304211944                                                                                                                                                                                                                
3990094300093A00070000101243 0000000581933 BRUNO RAFAEL RITTER           01401600010093      05012016R$                  0000000040000N                                                                                              0          
3990095300094B   100008370862993                                                                                                                                                                                                                
3990096300095A000   39901748 0017480366807 BRUNO VALENTE MAIOLINO        01401603990095      05012016R$                  0000000040000N                                                                                              0          
3990097300096B   100007190768971                                                                                                                                                                                                                
3990098300097A00070023701403 0000000021881 CAIO AUGUSTO GEISLER CAVAZZANI01401602370097      05012016R$                  0000000040000N                                                                                              0          
3990099300098B   100009746326945                                                                                                                                                                                                                
3990100300099A000   39901284 0012840096074 CAIO LOPES DA SILVA           01401603990099      05012016R$                  0000000040000N                                                                                              0          
3990101300100B   100009305234909                                                                                                                                                                                                                
3990102300101A00070000103510 0000000333476 CAIO PELLIZZARI               01401600010101      05012016R$                  0000000040000N                                                                                              0          
3990103300102B   100000869718916                                                                                                                                                                                                                
3990104300103A00070000104395 0000000118427 CAIO SEITI MIYOSHI            01401600010103      05012016R$                  0000000040000N                                                                                              0          
3990105300104B   100007988387952                                                                                                                                                                                                                
3990106300105A00070034103835 0000000649272 CAIO SOUZA DO NASCIMENTO      01401603410105      05012016R$                  0000000040000N                                                                                              0          
3990107300106B   100037651631803                                                                                                                                                                                                                
3990108300107A00070034104122 0000000089859 CAMILA MANTOVANI RODRIGUES    01401603410107      05012016R$                  0000000040000N                                                                                              0          
3990109300108B   100008720536950                                                                                                                                                                                                                
3990110300109A00070000102177 0000000152749 CAMILE SAKO                   01401600010109      05012016R$                  0000000040000N                                                                                              0          
3990111300110B   100033319427822                                                                                                                                                                                                                
3990112300111A00070000102823 0000000353450 CAMILLA TAHOARA ARRIAGADA SOTO01401600010111      05012016R$                  0000000040000N                                                                                              0          
3990113300112B   100005584063940                                                                                                                                                                                                                
3990114300113A00070023703364 0000000041904 CAMILLE PETRONCINI ZANETTE    01401602370113      05012016R$                  0000000040000N                                                                                              0          
3990115300114B   100008914106942                                                                                                                                                                                                                
3990116300115A00070034100548 0000000456029 CARLA CRISTIANE DE ANDRADE PIN01401603410115      05012016R$                  0000000040000N                                                                                              0          
3990117300116B   100003124349954                                                                                                                                                                                                                
3990118300117A00070000103184 0000000464031 CAROLINA EFING                01401600010117      05012016R$                  0000000040000N                                                                                              0          
3990119300118B   100008855929992                                                                                                                                                                                                                
3990120300119A00070010400796 0001000226677 CAROLINA FANTIN CARNEIRO      01401601040119      05012016R$                  0000000040000N                                                                                              0          
3990121300120B   100005400397999                                                                                                                                                                                                                
3990122300121A00070034103835 0000000408125 CAROLINA FAUST MACHADO        01401603410121      05012016R$                  0000000040000N                                                                                              0          
3990123300122B   100009077442901                                                                                                                                                                                                                
3990124300123A00070023702762 0000000480657 CAROLINA GIEMBRA DE FARIAS    01401602370123      05012016R$                  0000000040000N                                                                                              0          
3990125300124B   100009518804974                                                                                                                                                                                                                
3990126300125A00070023702248 0000000194328 CAROLINA GOMES DE ASSIS       01401602370125      05012016R$                  0000000040000N                                                                                              0          
3990127300126B   100010295578963                                                                                                                                                                                                                
3990128300127A00070000104891 0000000053465 CAROLINA ITIMURA HAYAMA       01401600010127      05012016R$                  0000000040000N                                                                                              0          
3990129300128B   100007235363924                                                                                                                                                                                                                
3990130300129A00070000104297 0000000206032 CAROLINA MARCELI DO COUTO     01401600010129      05012016R$                  0000000040000N                                                                                              0          
3990131300130B   100009819064945                                                                                                                                                                                                                
3990132300131A00070003302190 0000010226229 CAROLINA MIOTTO SCHIONTEK     01401600330131      05012016R$                  0000000040000N                                                                                              0          
3990133300132B   100007846508962                                                                                                                                                                                                                
3990134300133A00070000102803 0000000406350 CAROLINE ALVES MACHADO        01401600010133      05012016R$                  0000000040000N                                                                                              0          
3990135300134B   100007070410905                                                                                                                                                                                                                
3990136300135A00070000100009 0000000642274 CAROLINE AZEVEDO AVILA        01401600010135      05012016R$                  0000000040000N                                                                                              0          
3990137300136B   100009202144958                                                                                                                                                                                                                
3990138300137A00070000101347 0000000203319 CAROLINE NOVOCHADLO           01401600010137      05012016R$                  0000000040000N                                                                                              0          
3990139300138B   100009831830903                                                                                                                                                                                                                
3990140300139A00070000100859 0000000249831 CESAR LEANDRO GREGORY         01401600010139      05012016R$                  0000000040000N                                                                                              0          
3990141300140B   100004306611930                                                                                                                                                                                                                
3990142300141A00070034105956 0000000088115 CHRISTIAN LIMA DO NASCIMENTO  01401603410141      05012016R$                  0000000040000N                                                                                              0          
3990143300142B   100004522203942                                                                                                                                                                                                                
3990144300143A00070023706026 0000000031062 CINTHIA MARA FREITAS DE MELLO 01401602370143      05012016R$                  0000000040000N                                                                                              0          
3990145300144B   100007828259905                                                                                                                                                                                                                
3990146300145A00070034103788 0000000596710 CORA KRESSIN ARRUDA D´AQUINO  01401603410145      05012016R$                  0000000040000N                                                                                              0          
3990147300146B   100001177622963                                                                                                                                                                                                                
3990148300147A00070034103822 0000000516054 DAIANE MARTINHUK              01401603410147      05012016R$                  0000000040000N                                                                                              0          
3990149300148B   100008514413945                                                                                                                                                                                                                
3990150300149A00070000100996 0000000236780 DANDARA CRISTINA SANTIN       01401600010149      05012016R$                  0000000040000N                                                                                              0          
3990151300150B   100000710055013                                                                                                                                                                                                                
3990152300151A000   39901748 0017480304518 DANIEL HENRIQUE DE OLIVEIRA   01401603990151      05012016R$                  0000000040000N                                                                                              0          
3990153300152B   100009430509950                                                                                                                                                                                                                
3990154300153A00070034104018 0000000724833 DANIEL JOSE RIBAS             01401603410153      05012016R$                  0000000040000N                                                                                              0          
3990155300154B   100007186600999                                                                                                                                                                                                                
3990156300155A00070034100879 0000000067916 DANIEL LUIS KINDINGER         01401603410155      05012016R$                  0000000040000N                                                                                              0          
3990157300156B   100009496698905                                                                                                                                                                                                                
3990158300157A00070000102456 0000000583715 DANIELA GABRIEL               01401600010157      05012016R$                  0000000040000N                                                                                              0          
3990159300158B   100005994722944                                                                                                                                                                                                                
3990160300159A00070010403379 0001000258553 DANIELA TISONI                01401601040159      05012016R$                  0000000040000N                                                                                              0          
3990161300160B   100007737426973                                                                                                                                                                                                                
3990162300161A00070000103792 0000000163660 DANIELE MORO SANTANA          01401600010161      05012016R$                  0000000040000N                                                                                              0          
3990163300162B   100000772298947                                                                                                                                                                                                                
3990164300163A00070000103947 0000000088790 DEBORA DIANA SCHER            01401600010163      05012016R$                  0000000040000N                                                                                              0          
3990165300164B   100007178909960                                                                                                                                                                                                                
3990166300165A00070000102266 0000000253480 DEBORA PAOLA CALAIS           01401600010165      05012016R$                  0000000040000N                                                                                              0          
3990167300166B   100009259096960                                                                                                                                                                                                                
3990168300167A00070000100630 0000000268658 DEISY BRIGID DE ZORZI DALKE   01401600010167      05012016R$                  0000000040000N                                                                                              0          
3990169300168B   100007351468966                                                                                                                                                                                                                
3990170300169A000   39901748 0017480149644 DENISE DE SOUZA REMPEL        01401603990169      05012016R$                  0000000040000N                                                                                              0          
3990171300170B   100004920056990                                                                                                                                                                                                                
3990172300171A00070000100343 0000000269883 DHANNA ELIS FRANCISCO         01401600010171      05012016R$                  0000000040000N                                                                                              0          
3990173300172B   100008080954984                                                                                                                                                                                                                
3990174300173A00070000101458 0000000258350 DIEGO AGAPITO DOS SANTOS      01401600010173      05012016R$                  0000000040000N                                                                                              0          
3990175300174B   100010493544941                                                                                                                                                                                                                
3990176300175A00070000103262 0000000321249 DIEGO MENUZZI VIEIRA          01401600010175      05012016R$                  0000000040000N                                                                                              0          
3990177300176B   100001059058952                                                                                                                                                                                                                
3990178300177A000   39901748 0017480225324 DIEILA GIOMO DE LIMA          01401603990177      05012016R$                  0000000040000N                                                                                              0          
3990179300178B   100040373277830                                                                                                                                                                                                                
3990180300179A00070023702810 0000000202363 DIULI CLAIR DE OLIVEIRA PERALT01401602370179      05012016R$                  0000000040000N                                                                                              0          
3990181300180B   100008368158907                                                                                                                                                                                                                
3990182300181A00070003302256 0000010081113 DOMINIQUE BOLACH CAETANO      01401600330181      05012016R$                  0000000040000N                                                                                              0          
3990183300182B   100004429690901                                                                                                                                                                                                                
3990184300183A00070000101243 0000000659410 DOUGLAS AUGUSTO FERNANDES COUT01401600010183      05012016R$                  0000000040000N                                                                                              0          
3990185300184B   100009207713942                                                                                                                                                                                                                
3990186300185A00070000103632 0000000139009 EDSON GONCALVES DA SILVA      01401600010185      05012016R$                  0000000040000N                                                                                              0          
3990187300186B   100003633036938                                                                                                                                                                                                                
3990188300187A00070000101443 0000000294535 EDUARDO AUGUSTO DA SILVA LOPES01401600010187      05012016R$                  0000000040000N                                                                                              0          
3990189300188B   100006839717941                                                                                                                                                                                                                
3990190300189A00070000105223 0000003356752 EDUARDO BRAGA DA SILVA BAADE  01401600010189      05012016R$                  0000000040000N                                                                                              0          
3990191300190B   100008828794992                                                                                                                                                                                                                
3990192300191A00070000102823 0000000394190 EDUARDO DE OLIVEIRA RIBATSKI  01401600010191      05012016R$                  0000000040000N                                                                                              0          
3990193300192B   100008300315969                                                                                                                                                                                                                
3990194300193A00070034101656 0000000199609 EDUARDO THOMAZI               01401603410193      05012016R$                  0000000040000N                                                                                              0          
3990195300194B   100005280490970                                                                                                                                                                                                                
3990196300195A000   39901748 0017480288814 ELISA MARIA BERGONSE FERRO    01401603990195      05012016R$                  0000000040000N                                                                                              0          
3990197300196B   100004821713918                                                                                                                                                                                                                
3990198300197A00070000103509 0000000296805 ERIC TAKASHI TAKARADA         01401600010197      05012016R$                  0000000040000N                                                                                              0          
3990199300198B   100007727222933                                                                                                                                                                                                                
3990200300199A00070000102457 0000000103942 ERICA MERLIM PERENTEL SILVA   01401600010199      05012016R$                  0000000040000N                                                                                              0          
3990201300200B   100006066776908                                                                                                                                                                                                                
3990202300201A00070000108129 0000000091790 ERICA PADILHA                 01401600010201      05012016R$                  0000000040000N                                                                                              0          
3990203300202B   100008453191913                                                                                                                                                                                                                
3990204300203A00070003301649 0000010044506 ERICK GUSTAVO DE OLIVEIRA ALCA01401600330203      05012016R$                  0000000040000N                                                                                              0          
3990205300204B   100007529870971                                                                                                                                                                                                                
3990206300205A00070034107454 0000000143970 ERIKA FRANCIELLY DA SILVA     01401603410205      05012016R$                  0000000040000N                                                                                              0          
3990207300206B   100007767038971                                                                                                                                                                                                                
3990208300207A00070034101568 0000000209207 EZAN DORACI DA SILVA          01401603410207      05012016R$                  0000000040000N                                                                                              0          
3990209300208B   100008205277931                                                                                                                                                                                                                
3990210300209A00070010403876 0001000221791 FABIANA ULIWIAK DE PAIVA      01401601040209      05012016R$                  0000000040000N                                                                                              0          
3990211300210B   100001175048909                                                                                                                                                                                                                
3990212300211A00070000103007 0000000373052 FABIO RODRIGO NOGUEIRA        01401600010211      05012016R$                  0000000040000N                                                                                              0          
3990213300212B   100008286339916                                                                                                                                                                                                                
3990214300213A00070000101182 0000000194956 FABIO TOFOLO REIS             01401600010213      05012016R$                  0000000040000N                                                                                              0          
3990215300214B   100006036933690                                                                                                                                                                                                                
3990216300215A00070000103859 0000000546577 FELIPE DE OLIVEIRA SOUZA      01401600010215      05012016R$                  0000000040000N                                                                                              0          
3990217300216B   100039691651807                                                                                                                                                                                                                
3990218300217A000   39900427 0004270022557 FELIPE DE SOUZA GUTIERRE      01401603990217      05012016R$                  0000000040000N                                                                                              0          
3990219300218B   100007381032929                                                                                                                                                                                                                
3990220300219A00070000102920 0000000187348 FELIPE HARTCOPP BETONI        01401600010219      05012016R$                  0000000040000N                                                                                              0          
3990221300220B   100000954806921                                                                                                                                                                                                                
3990222300221A00070034105443 0000000016166 FELIPPE HENRIQUE HAGIWARA DE F01401603410221      05012016R$                  0000000040000N                                                                                              0          
3990223300222B   100005866382962                                                                                                                                                                                                                
3990224300223A00070003300813 0000010111163 FERNANDA CRISTINE ROBASZKIEWIC01401600330223      05012016R$                  0000000040000N                                                                                              0          
3990225300224B   100008042034903                                                                                                                                                                                                                
3990226300225A00070000101519 0000000586102 FILIPE BARROS MAIA            01401600010225      05012016R$                  0000000040000N                                                                                              0          
3990227300226B   100001314624318                                                                                                                                                                                                                
3990228300227A00070034108488 0000000005888 FRANCIELLE DE CASSIA COELHO MO01401603410227      05012016R$                  0000000040000N                                                                                              0          
3990229300228B   100007282957924                                                                                                                                                                                                                
3990230300229A00070034103796 0000000331100 GABRIEL ALCIDES CAPUCHO DE LIM01401603410229      05012016R$                  0000000040000N                                                                                              0          
3990231300230B   100007915557980                                                                                                                                                                                                                
3990232300231A00070034103878 0000000027683 GABRIEL CHAVES BECCHI         01401603410231      05012016R$                  0000000040000N                                                                                              0          
3990233300232B   100007859011913                                                                                                                                                                                                                
3990234300233A00070034101538 0000000095918 GABRIEL FERREIRA RIBEIRO      01401603410233      05012016R$                  0000000040000N                                                                                              0          
3990235300234B   100013486863754                                                                                                                                                                                                                
3990236300235A00070034108411 0000000149803 GABRIEL FRITSCHE              01401603410235      05012016R$                  0000000040000N                                                                                              0          
3990237300236B   100004986646940                                                                                                                                                                                                                
3990238300237A00070034103723 0000000258335 GABRIEL VIRGILIO CORREA MENDES01401603410237      05012016R$                  0000000040000N                                                                                              0          
3990239300238B   100041015232825                                                                                                                                                                                                                
3990240300239A00070034106663 0000000200092 GABRIELA BUENO RODRIGUES      01401603410239      05012016R$                  0000000040000N                                                                                              0          
3990241300240B   100008685277930                                                                                                                                                                                                                
3990242300241A00070000100495 0000000494011 GABRIELA DAGIOS AMADORI       01401600010241      05012016R$                  0000000040000N                                                                                              0          
3990243300242B   100007415779924                                                                                                                                                                                                                
3990244300243A00070000100349 0000000588180 GABRIELA REAL SIQUEIRA        01401600010243      05012016R$                  0000000040000N                                                                                              0          
3990245300244B   100008359224994                                                                                                                                                                                                                
3990246300245A00070010403158 0023000009200 GABRIELLA EDUARDA JACOMEL     01401601040245      05012016R$                  0000000040000N                                                                                              0          
3990247300246B   100008564314940                                                                                                                                                                                                                
3990248300247A00070034104122 0000000139399 GABRIELLE ANDRUSKO DOS SANTOS 01401603410247      05012016R$                  0000000040000N                                                                                              0          
3990249300248B   100007908526918                                                                                                                                                                                                                
3990250300249A00070034101688 0000000464757 GABRIELLE LUISE DE OLIVEIRA   01401603410249      05012016R$                  0000000040000N                                                                                              0          
3990251300250B   100006342830908                                                                                                                                                                                                                
3990252300251A00070034103811 0000000437189 GIOVANI CALIXTO DE ANDRADE    01401603410251      05012016R$                  0000000040000N                                                                                              0          
3990253300252B   100008102726954                                                                                                                                                                                                                
3990254300253A00070000100009 0000003616975 GIOVANNA ALVES DOS SANTOS     01401600010253      05012016R$                  0000000040000N                                                                                              0          
3990255300254B   100006945507955                                                                                                                                                                                                                
3990256300255A00070010403708 0001000209720 GISELE JABUR                  01401601040255      05012016R$                  0000000040000N                                                                                              0          
3990257300256B   100007267374964                                                                                                                                                                                                                
3990258300257A00070000100695 0000000399434 GISELE MILLER TOMAZ           01401600010257      05012016R$                  0000000040000N                                                                                              0          
3990259300258B   100006413556960                                                                                                                                                                                                                
3990260300259A00070000100830 0000000266310 GISLAINE ALEIXO DA COSTA      01401600010259      05012016R$                  0000000040000N                                                                                              0          
3990261300260B   100008346026951                                                                                                                                                                                                                
3990262300261A00070000104297 0000000220302 GIULIA JAGER MAXIMOWICZ       01401600010261      05012016R$                  0000000040000N                                                                                              0          
3990263300262B   100010247396940                                                                                                                                                                                                                
3990264300263A00070000104110 0000000105511 GUILHERME LUIZ BAZEI          01401600010263      05012016R$                  0000000040000N                                                                                              0          
3990265300264B   100010015921905                                                                                                                                                                                                                
3990266300265A00070000103020 0000000385484 GUILHERME MARQUES GAWLOWSKI   01401600010265      05012016R$                  0000000040000N                                                                                              0          
3990267300266B   100009695479944                                                                                                                                                                                                                
3990268300267A00070000104297 0000000080292 HELINGTON CASTRO KRUGER       01401600010267      05012016R$                  0000000040000N                                                                                              0          
3990269300268B   100007172449975                                                                                                                                                                                                                
3990270300269A000   39900123 0001230215864 HELOISE BUSS MORVAN           01401603990269      05012016R$                  0000000040000N                                                                                              0          
3990271300270B   100008843663917                                                                                                                                                                                                                
3990272300271A00070000101876 0000000464333 HUGO AGUIAR DE SOUZA NICOLLI S01401600010271      05012016R$                  0000000040000N                                                                                              0          
3990273300272B   100005592357982                                                                                                                                                                                                                
3990274300273A000   39901748 0017480258940 IAZANA GARCIA CUSTODIO        01401603990273      05012016R$                  0000000040000N                                                                                              0          
3990275300274B   100007502739920                                                                                                                                                                                                                
3990276300275A000   39901748 0000000000000 ICARO CAMARGO AZAMBUJA        01401603990275      05012016R$                  0000000040000N                                                                                              0          
3990277300276B   100007736353948                                                                                                                                                                                                                
3990278300277A00070034108411 0000000151619 ICARO ZAGROBELNY MOURA        01401603410277      05012016R$                  0000000040000N                                                                                              0          
3990279300278B   100009437873941                                                                                                                                                                                                                
3990280300279A00070023701205 0000000051780 ILDEMAR LUIS MORO VIANNA JUNIO01401602370279      05012016R$                  0000000040000N                                                                                              0          
3990281300280B   100006939763902                                                                                                                                                                                                                
3990282300281A00070034103793 0000000268222 INGRA TAIS MALACARNE          01401603410281      05012016R$                  0000000040000N                                                                                              0          
3990283300282B   100008951327965                                                                                                                                                                                                                
3990284300283A00070034103835 0000000690698 IRAILSON CUBA DE SOUZA JUNIOR 01401603410283      05012016R$                  0000000040000N                                                                                              0          
3990285300284B   100008642704969                                                                                                                                                                                                                
3990286300285A00070003300810 0000010107383 ISABELA DE CARVALHO CROZETTA  01401600330285      05012016R$                  0000000040000N                                                                                              0          
3990287300286B   100009359860905                                                                                                                                                                                                                
3990288300287A00070000103051 0000000279790 ISABELE DA VEIGA MORO         01401600010287      05012016R$                  0000000040000N                                                                                              0          
3990289300288B   100010433748923                                                                                                                                                                                                                
3990290300289A00070010400406 0001000396635 ISABELLA FRANGI BASSANI       01401601040289      05012016R$                  0000000040000N                                                                                              0          
3990291300290B   100005260406966                                                                                                                                                                                                                
3990292300291A00070010400393 0001000208414 ISADORA MACHADO WILLE         01401601040291      05012016R$                  0000000040000N                                                                                              0          
3990293300292B   100008729232902                                                                                                                                                                                                                
3990294300293A00070034107222 0000000043908 ISMAEL HIGOR CARDOSO DUARTE   01401603410293      05012016R$                  0000000040000N                                                                                              0          
3990295300294B   100007952823973                                                                                                                                                                                                                
3990296300295A00070034108614 0000000411695 IVAN SAAD KOSCHELNY           01401603410295      05012016R$                  0000000040000N                                                                                              0          
3990297300296B   100008982649956                                                                                                                                                                                                                
3990298300297A00070023700429 0000000259047 IZABELA MOZZER                01401602370297      05012016R$                  0000000040000N                                                                                              0          
3990299300298B   100009724782999                                                                                                                                                                                                                
3990300300299A00070003301012 0000010044700 IZABELE PEIXOTO               01401600330299      05012016R$                  0000000040000N                                                                                              0          
3990301300300B   100008491643974                                                                                                                                                                                                                
3990302300301A00070034103833 0000000285715 IZABELLA BONDI SARTORI        01401603410301      05012016R$                  0000000040000N                                                                                              0          
3990303300302B   100005450496958                                                                                                                                                                                                                
3990304300303A00070000100208 0000000149373 IZADORA BATISTA CUSTODIO CARVA01401600010303      05012016R$                  0000000040000N                                                                                              0          
3990305300304B   100001282011189                                                                                                                                                                                                                
3990306300305A00070034100633 0000000573357 JACQUELINE PRADO ZELLNER      01401603410305      05012016R$                  0000000040000N                                                                                              0          
3990307300306B   100007416541999                                                                                                                                                                                                                
3990308300307A00070000103512 0000000340197 JAQUELINE RAFAELA CONSTANTINOV01401600010307      05012016R$                  0000000040000N                                                                                              0          
3990309300308B   100006594796992                                                                                                                                                                                                                
3990310300309A00070000101432 0000000316369 JEAN CARLO JACICHEN LUZ       01401600010309      05012016R$                  0000000040000N                                                                                              0          
3990311300310B   100009282614921                                                                                                                                                                                                                
3990312300311A00070000105047 0000000054836 JESSICA CANDIDO FERREIRA      01401600010311      05012016R$                  0000000040000N                                                                                              0          
3990313300312B   100039563617843                                                                                                                                                                                                                
3990314300313A00070003303114 0000010824251 JESSICA DE MORAIS SEIXAS      01401600330313      05012016R$                  0000000040000N                                                                                              0          
3990315300314B   100008445272977                                                                                                                                                                                                                
3990316300315A000   39900026 0000260526290 JESSICA MAIRA TELLES DE SOUZA 01401603990315      05012016R$                  0000000040000N                                                                                              0          
3990317300316B   100009330210970                                                                                                                                                                                                                
3990318300317A000   39900358 0003580252820 JOAO HENRIQUE FREGADOLLI FERRE01401603990317      05012016R$                  0000000040000N                                                                                              0          
3990319300318B   100008748350974                                                                                                                                                                                                                
3990320300319A000   39900003 0000030530490 JOAO MANOEL RODRIGUES MANENTI 01401603990319      05012016R$                  0000000040000N                                                                                              0          
3990321300320B   100040913867845                                                                                                                                                                                                                
3990322300321A000   39901748 0017480185870 JOHNNY GIL MELCHIADES         01401603990321      05012016R$                  0000000040000N                                                                                              0          
3990323300322B   100006905054933                                                                                                                                                                                                                
3990324300323A000   39901811 0018111677958 JOHNY WESLEY BARBOSA VARGAS   01401603990323      05012016R$                  0000000040000N                                                                                              0          
3990325300324B   100006231400980                                                                                                                                                                                                                
3990326300325A000   39901748 0017480363115 JOSE AUGUSTO DA SILVA DE CARVA01401603990325      05012016R$                  0000000040000N                                                                                              0          
3990327300326B   100005514415937                                                                                                                                                                                                                
3990328300327A00070034100548 0000000390020 JOSE CARLOS CERVI             01401603410327      05012016R$                  0000000040000N                                                                                              0          
3990329300328B   100066418402987                                                                                                                                                                                                                
3990330300329A00070003303415 0000010931214 JOSE MONTEIRO DA GAMA TETRANET01401600330329      05012016R$                  0000000040000N                                                                                              0          
3990331300330B   100006413350911                                                                                                                                                                                                                
3990332300331A00070010403414 0001000002396 JOSE RICARDO FERREIRA         01401601040331      05012016R$                  0000000040000N                                                                                              0          
3990333300332B   100001778593933                                                                                                                                                                                                                
3990334300333A00070034103704 0000000186620 JOSE TIAGO JOLY               01401603410333      05012016R$                  0000000040000N                                                                                              0          
3990335300334B   100004336856974                                                                                                                                                                                                                
3990336300335A00070000103262 0000000228044 JOYCE FUCKNER LEONEL          01401600010335      05012016R$                  0000000040000N                                                                                              0          
3990337300336B   100007470857907                                                                                                                                                                                                                
3990338300337A00070000100009 0000003667723 JULIA MARIA AGUIAR SPINICCI   01401600010337      05012016R$                  0000000040000N                                                                                              0          
3990339300338B   100009804823993                                                                                                                                                                                                                
3990340300339A00070034100615 0000000080397 JULIA MEZAROBBA               01401603410339      05012016R$                  0000000040000N                                                                                              0          
3990341300340B   100007618495998                                                                                                                                                                                                                
3990342300341A00070034109313 0000000533748 JULIA OLSTAN SALOMAO          01401603410341      05012016R$                  0000000040000N                                                                                              0          
3990343300342B   100005166510992                                                                                                                                                                                                                
3990344300343A00070000103142 0000000173673 JULIA TIE SAKURAI             01401600010343      05012016R$                  0000000040000N                                                                                              0          
3990345300344B   100007251830981                                                                                                                                                                                                                
3990346300345A00070000103262 0000000256943 JULIANA DA SILVEIRA           01401600010345      05012016R$                  0000000040000N                                                                                              0          
3990347300346B   100007743884988                                                                                                                                                                                                                
3990348300347A00070000103007 0000000405159 JULIANA MAFRA DE OLIVEIRA     01401600010347      05012016R$                  0000000040000N                                                                                              0          
3990349300348B   100009101332988                                                                                                                                                                                                                
3990350300349A000   39901748 0017480305883 JULIANA MARA PADILHA          01401603990349      05012016R$                  0000000040000N                                                                                              0          
3990351300350B   100009944708941                                                                                                                                                                                                                
3990352300351A00070000102823 0000002104970 JULIANA PADILHA DE SOUZA      01401600010351      05012016R$                  0000000040000N                                                                                              0          
3990353300352B   100005653842958                                                                                                                                                                                                                
3990354300353A000   39901748 0017480361511 JULIELLI TAQUES COLMAN        01401603990353      05012016R$                  0000000040000N                                                                                              0          
3990355300354B   100005147946900                                                                                                                                                                                                                
3990356300355A00070000102926 0000000284297 JULYANA FIORIN                01401600010355      05012016R$                  0000000040000N                                                                                              0          
3990357300356B   100009823120919                                                                                                                                                                                                                
3990358300357A00070000101433 0000000538043 KARINA DE OLIVEIRA MULLER FERN01401600010357      05012016R$                  0000000040000N                                                                                              0          
3990359300358B   100034762488879                                                                                                                                                                                                                
3990360300359A00070010403397 0023000049260 KARINE SANTOS FRASQUETTI      01401601040359      05012016R$                  0000000040000N                                                                                              0          
3990361300360B   100008843459988                                                                                                                                                                                                                
3990362300361A00070023702022 0000000451800 KASSIO HOINSKI FILIPAK        01401602370361      05012016R$                  0000000040000N                                                                                              0          
3990363300362B   100001035353903                                                                                                                                                                                                                
3990364300363A00070034106629 0000000267847 KATHERINE KRUGER PAES         01401603410363      05012016R$                  0000000040000N                                                                                              0          
3990365300364B   100008686958907                                                                                                                                                                                                                
3990366300365A00070000103849 0000000216887 KATHLYN DO ESPIRITO SANTO     01401600010365      05012016R$                  0000000040000N                                                                                              0          
3990367300366B   100009421961986                                                                                                                                                                                                                
3990368300367A00070003300809 0000010119106 KATHYLIN FIOROTTI DA SILVA BRI01401600330367      05012016R$                  0000000040000N                                                                                              0          
3990369300368B   100008977451914                                                                                                                                                                                                                
3990370300369A00070034103730 0000000457797 KATIELI PEREIRA               01401603410369      05012016R$                  0000000040000N                                                                                              0          
3990371300370B   100008947695963                                                                                                                                                                                                                
3990372300371A00070003304297 0000010748662 KAUANA DE AZEVEDO GUIMARAES PO01401600330371      05012016R$                  0000000040000N                                                                                              0          
3990373300372B   100008308291996                                                                                                                                                                                                                
3990374300373A00070034100616 0000000307161 KELLY KAROLINE DOS SANTOS     01401603410373      05012016R$                  0000000040000N                                                                                              0          
3990375300374B   100009632791908                                                                                                                                                                                                                
3990376300375A00070000100756 0000000673684 KHAREN KELM HERBST            01401600010375      05012016R$                  0000000040000N                                                                                              0          
3990377300376B   100007022258945                                                                                                                                                                                                                
3990378300377A00070000100476 0000000295850 KHAUANY MARQUES DARDENGO      01401600010377      05012016R$                  0000000040000N                                                                                              0          
3990379300378B   100009923337928                                                                                                                                                                                                                
3990380300379A00070010401633 0001000271686 LAIS BANDEIRA                 01401601040379      05012016R$                  0000000040000N                                                                                              0          
3990381300380B   100009104706935                                                                                                                                                                                                                
3990382300381A00070003303903 0000010656838 LAIS PIRES DA SILVA LAGOS     01401600330381      05012016R$                  0000000040000N                                                                                              0          
3990383300382B   100007653500927                                                                                                                                                                                                                
3990384300383A00070000104395 0000000124982 LARISSA TAVARES CERDEIRA      01401600010383      05012016R$                  0000000040000N                                                                                              0          
3990385300384B   100042267167875                                                                                                                                                                                                                
3990386300385A00070010403915 0001000062473 LEANDRO AGOSTINHO             01401601040385      05012016R$                  0000000040000N                                                                                              0          
3990387300386B   100004409670905                                                                                                                                                                                                                
3990388300387A00070023700058 0000000012947 LEANDRO MENEZES BREDARIOL     01401602370387      05012016R$                  0000000040000N                                                                                              0          
3990389300388B   100004403239919                                                                                                                                                                                                                
3990390300389A00070010400368 0001001017250 LEIZA LOIANE HOLLAS           01401601040389      05012016R$                  0000000040000N                                                                                              0          
3990391300390B   100001012850943                                                                                                                                                                                                                
3990392300391A000   39900358 0003580252811 LEONARDO KENJI NESI MITSUTAKE 01401603990391      05012016R$                  0000000040000N                                                                                              0          
3990393300392B   100010348092962                                                                                                                                                                                                                
3990394300393A00070023703285 0000000054925 LEONEL RIBAS JUNIOR           01401602370393      05012016R$                  0000000040000N                                                                                              0          
3990395300394B   100004728687996                                                                                                                                                                                                                
3990396300395A00070000101869 0000000447617 LETICIA AKAZAKI OYAMA         01401600010395      05012016R$                  0000000040000N                                                                                              0          
3990397300396B   100004372289910                                                                                                                                                                                                                
3990398300397A00070000101387 0000000212180 LETICIA CARDOSO ERN           01401600010397      05012016R$                  0000000040000N                                                                                              0          
3990399300398B   100008817291919                                                                                                                                                                                                                
3990400300399A00070000102262 0000000181048 LETICIA DE ALMEIDA            01401600010399      05012016R$                  0000000040000N                                                                                              0          
3990401300400B   100009273113990                                                                                                                                                                                                                
3990402300401A00070034103769 0000000136577 LETICIA DELAVALENTINA ZANACHI 01401603410401      05012016R$                  0000000040000N                                                                                              0          
3990403300402B   100009265874988                                                                                                                                                                                                                
3990404300403A00070000100957 0000000220442 LETICIA GORTE                 01401600010403      05012016R$                  0000000040000N                                                                                              0          
3990405300404B   100009805759903                                                                                                                                                                                                                
3990406300405A00070034100083 0000000597773 LIA NARA GOUVEIA PITTA        01401603410405      05012016R$                  0000000040000N                                                                                              0          
3990407300406B   100006075092951                                                                                                                                                                                                                
3990408300407A000   39900066 0000660252902 LUCAS ANDRES GERHARDT         01401603990407      05012016R$                  0000000040000N                                                                                              0          
3990409300408B   100009104039963                                                                                                                                                                                                                
3990410300409A00070034107222 0000000236072 LUCAS AUGUSTO TAVARES DA SILVA01401603410409      05012016R$                  0000000040000N                                                                                              0          
3990411300410B   100008094169990                                                                                                                                                                                                                
3990412300411A00070000103007 0000000405353 LUCAS BANDOCH                 01401600010411      05012016R$                  0000000040000N                                                                                              0          
3990413300412B   100008937078996                                                                                                                                                                                                                
