39900000         276659820000151246107              00000 0000000000000 APC PIBIC                     HSBC BANK BRASIL S.A.                   10408201615343000000002001600CPGY2K SFW 10.10                                                     
39900011C2001020 276659820000151246107              00000 0000000000000 APC PIBIC                                                                                                                                   00000000                    
3990002300001A00070010400375 0001000297508 ACIR BRITO FILHO            014801901601040001    05082016R$                  0000000040000N                                                                                              0          
3990003300002B   100085575615987                                                                                                                                                                                                                
3990004300003A00070000101443 0000000240095 ADRIAN MOHAMED NUNES AMARAL 014746701600010003    05082016R$                  0000000040000N                                                                                              0          
3990005300004B   100001496975200                                                                                                                                                                                                                
3990006300005A00070003303889 0000010460865 AGOSTINHO LUIZ SILVESTRI NET014828501600330005    05082016R$                  0000000040000N                                                                                              0          
3990007300006B   100007573160933                                                                                                                                                                                                                
3990008300007A00070000101426 0000000221538 ALAN CARLOS LOPES FILHO     014853001600010007    05082016R$                  0000000040000N                                                                                              0          
3990009300008B   100002696779171                                                                                                                                                                                                                
3990010300009A000   39901748 0017480180550 ALESSANDRA DE LACERDA CARVAL014803901603990009    05082016R$                  0000000040000N                                                                                              0          
3990011300010B   100004916618947                                                                                                                                                                                                                
3990012300011A00070000100587 0000000730084 ALESSON DIEGO SPEROTTO      014751301600010011    05082016R$                  0000000040000N                                                                                              0          
3990013300012B   100007246376992                                                                                                                                                                                                                
3990014300013A00070034107407 0000000011241 ALICE BUACHAK GOMES         014778501603410013    05082016R$                  0000000040000N                                                                                              0          
3990015300014B   100007450568900                                                                                                                                                                                                                
3990016300015A00070034100616 0000000234126 ALINE ALVES CARNEIRO        014815301603410015    05082016R$                  0000000040000N                                                                                              0          
3990017300016B   100009329586996                                                                                                                                                                                                                
3990018300017A000   39901748 0017480362801 ALINE CUBAS DE SOUZA        014818301603990017    05082016R$                  0000000040000N                                                                                              0          
3990019300018B   100009680983986                                                                                                                                                                                                                
3990020300019A00070034108269 0000000217405 ALINE GARCIA FERRARI        014823301603410019    05082016R$                  0000000040000N                                                                                              0          
3990021300020B   100003390570179                                                                                                                                                                                                                
3990022300021A00070003302044 0000010095593 AMANDA COSTA CASTILHANO     014820101600330021    05082016R$                  0000000040000N                                                                                              0          
3990023300022B   100007965625989                                                                                                                                                                                                                
3990024300023A000   39900054 0000542489767 AMANDA LUIZA STROPARO       014770501603990023    05082016R$                  0000000040000N                                                                                              0          
3990025300024B   100008799622912                                                                                                                                                                                                                
3990026300025A00070023700929 0000000083755 AMANDA MORO DOS SANTOS      014746401602370025    05082016R$                  0000000040000N                                                                                              0          
3990027300026B   100008729035910                                                                                                                                                                                                                
3990028300027A00070023706021 0000000025275 AMANDA PEREIRA AGOSTINHO    014799001602370027    05082016R$                  0000000040000N                                                                                              0          
3990029300028B   100010824859936                                                                                                                                                                                                                
3990030300029A00070003303722 0000010517316 AMANDA PIZZATO DA SILVEIRA  014791801600330029    05082016R$                  0000000040000N                                                                                              0          
3990031300030B   100005389695984                                                                                                                                                                                                                
3990032300031A00070010403379 0023000070830 AMANDA SAMUJEDEN DA SILVA   014813901601040031    05082016R$                  0000000040000N                                                                                              0          
3990033300032B   100009804100967                                                                                                                                                                                                                
3990034300033A00070000103511 0000000303283 AMANDA SANT´ANNA MANN       014831601600010033    05082016R$                  0000000040000N                                                                                              0          
3990035300034B   100009835346917                                                                                                                                                                                                                
3990036300035A00070023701197 0000000557250 AMARILDO SIQUEIRA JUNIOR    014767301602370035    05082016R$                  0000000040000N                                                                                              0          
3990037300036B   100038164109878                                                                                                                                                                                                                
3990038300037A00070034100942 0000000437476 ANA CAROLINA DA SILVA       014811401603410037    05082016R$                  0000000040000N                                                                                              0          
3990039300038B   100007856974974                                                                                                                                                                                                                
3990040300039A00070000103792 0000000380830 ANA CAROLINA DA SILVA DE ALM014814701600010039    05082016R$                  0000000040000N                                                                                              0          
3990041300040B   100004861715903                                                                                                                                                                                                                
3990042300041A00070034103837 0000000407554 ANA CAROLINA KARESCOSKI BORG014827301603410041    05082016R$                  0000000040000N                                                                                              0          
3990043300042B   100008811271916                                                                                                                                                                                                                
3990044300043A00070034100273 0000000220574 ANDRE HARTMANN              014790001603410043    05082016R$                  0000000040000N                                                                                              0          
3990045300044B   100007725106952                                                                                                                                                                                                                
3990046300045A00070000103020 0000000336688 ANDRE LUIS KARPEN           014780201600010045    05082016R$                  0000000040000N                                                                                              0          
3990047300046B   100008615515913                                                                                                                                                                                                                
3990048300047A00070010402155 0001000210118 ANDRESSA DE ANDRADE         014793501601040047    05082016R$                  0000000040000N                                                                                              0          
3990049300048B   100010077801938                                                                                                                                                                                                                
3990050300049A000   39901748 0017480362330 ANDRESSA KUDIESS            014811301603990049    05082016R$                  0000000040000N                                                                                              0          
3990051300050B   100005437108150                                                                                                                                                                                                                
3990052300051A000   39901748 0017480289403 ANDREY ALVES KOCHAKE        014766201603990051    05082016R$                  0000000040000N                                                                                              0          
3990053300052B   100006165054935                                                                                                                                                                                                                
3990054300053A00070034103720 0000000234065 ANGELA CRISTINA DA FONSECA D014775501603410053    05082016R$                  0000000040000N                                                                                              0          
3990055300054B   100009512783983                                                                                                                                                                                                                
3990056300055A00070034106140 0000000259570 ANGELA CRISTINA EYNG        014827701603410055    05082016R$                  0000000040000N                                                                                              0          
3990057300056B   100013936334714                                                                                                                                                                                                                
3990058300057A00070000100756 0000000736155 ANGELA TERESINHA RANK       014794201600010057    05082016R$                  0000000040000N                                                                                              0          
3990059300058B   100075710595934                                                                                                                                                                                                                
3990060300059A000   39900054 0000541133292 ANGELO ANTONIO BARRETTO CRIS014755301603990059    05082016R$                  0000000040000N                                                                                              0          
3990061300060B   100082838445049                                                                                                                                                                                                                
3990062300061A00070003302256 0000010077244 ANILA COSTA VELHO           014755901600330061    05082016R$                  0000000040000N                                                                                              0          
3990063300062B   100007853027940                                                                                                                                                                                                                
3990064300063A00070000103273 0000000147400 ANNE CAROLINE COBBE DE FREIT014814901600010063    05082016R$                  0000000040000N                                                                                              0          
3990065300064B   100005939957919                                                                                                                                                                                                                
3990066300065A00070000101522 0000000319805 AUREA E OM SPRICIGO SIQUEIRA014768801600010065    05082016R$                  0000000040000N                                                                                              0          
3990067300066B   100008894340937                                                                                                                                                                                                                
3990068300067A00070000103262 0000000268801 BARBARA NATALIA RODRIGUES   014778301600010067    05082016R$                  0000000040000N                                                                                              0          
3990069300068B   100009088665931                                                                                                                                                                                                                
3990070300069A000   39900125 0001250120150 BEATRIZ CRISTINA DE GOES    014811601603990069    05082016R$                  0000000040000N                                                                                              0          
3990071300070B   100009530295901                                                                                                                                                                                                                
3990072300071A00070010403740 0001000224510 BERNARDO GRITTI             014839601601040071    05082016R$                  0000000040000N                                                                                              0          
3990073300072B   100005575589994                                                                                                                                                                                                                
3990074300073A00070000102920 0000000302791 BERNARDO LUIS TULESKI       014763701600010073    05082016R$                  0000000040000N                                                                                              0          
3990075300074B   100010141710918                                                                                                                                                                                                                
3990076300075A00070003301236 0000010032293 BIANCA BORGES CABRAL        014803801600330075    05082016R$                  0000000040000N                                                                                              0          
3990077300076B   100010395044936                                                                                                                                                                                                                
3990078300077A00070023702774 0000000200468 BIANCA CARDOSO WEIDNER      014854001602370077    05082016R$                  0000000040000N                                                                                              0          
3990079300078B   100043031230809                                                                                                                                                                                                                
3990080300079A00070034103704 0000000195001 BIANCA DOMIT WERNER LINNENKA014792801603410079    05082016R$                  0000000040000N                                                                                              0          
3990081300080B   100008173337977                                                                                                                                                                                                                
3990082300081A000   39901748 0017480386310 BIANCA ROSA DOS SANTOS      014826901603990081    05082016R$                  0000000040000N                                                                                              0          
3990083300082B   100007230570956                                                                                                                                                                                                                
3990084300083A00070010400368 0001000690325 BIANCA ROSA NEVES TONIETTO  014747701601040083    05082016R$                  0000000040000N                                                                                              0          
3990085300084B   100009485525907                                                                                                                                                                                                                
3990086300085A00070034100615 0000000056165 BRUNA CAROLINA CATANI LOPES 014766601603410085    05082016R$                  0000000040000N                                                                                              0          
3990087300086B   100004354063964                                                                                                                                                                                                                
3990088300087A00070000105735 0000000060194 BRUNA SANTOS DE OLIVEIRA    014853701600010087    05082016R$                  0000000040000N                                                                                              0          
3990089300088B   100006728018921                                                                                                                                                                                                                
3990090300089A00070023700585 0000000560618 BRUNA SCHAIDT               014777101602370089    05082016R$                  0000000040000N                                                                                              0          
3990091300090B   100009357985956                                                                                                                                                                                                                
3990092300091A00070000101432 0000000351482 BRUNA SILVA SANTOS          014774101600010091    05082016R$                  0000000040000N                                                                                              0          
3990093300092B   100009680641910                                                                                                                                                                                                                
3990094300093A00070010402864 0001000055800 BRUNA TAYSE PEREIRA DOS SANT014780301601040093    05082016R$                  0000000040000N                                                                                              0          
3990095300094B   100008464768940                                                                                                                                                                                                                
3990096300095A00070034104014 0000000606448 BRUNA WERLANG PAIM          014808001603410095    05082016R$                  0000000040000N                                                                                              0          
3990097300096B   100008586595900                                                                                                                                                                                                                
3990098300097A00070010403557 0001000217803 BRUNO BASTOS                014758001601040097    05082016R$                  0000000040000N                                                                                              0          
3990099300098B   100007796287992                                                                                                                                                                                                                
3990100300099A00070000101265 0000000178497 BRUNO GUSTAVO DOMACOSKI     014801101600010099    05082016R$                  0000000040000N                                                                                              0          
3990101300100B   100007552494964                                                                                                                                                                                                                
3990102300101A00070000106992 0000000078875 BRUNO MACHUCA THON          014752301600010101    05082016R$                  0000000040000N                                                                                              0          
3990103300102B   100005304211944                                                                                                                                                                                                                
3990104300103A00070000101243 0000000581933 BRUNO RAFAEL RITTER         014776101600010103    05082016R$                  0000000040000N                                                                                              0          
3990105300104B   100008370862993                                                                                                                                                                                                                
3990106300105A000   39901748 0017480366807 BRUNO VALENTE MAIOLINO      014810701603990105    05082016R$                  0000000040000N                                                                                              0          
3990107300106B   100007190768971                                                                                                                                                                                                                
3990108300107A00070023701403 0000000021881 CAIO AUGUSTO GEISLER CAVAZZA014765801602370107    05082016R$                  0000000040000N                                                                                              0          
3990109300108B   100009746326945                                                                                                                                                                                                                
3990110300109A000   39901284 0012840096074 CAIO LOPES DA SILVA         014833201603990109    05082016R$                  0000000040000N                                                                                              0          
3990111300110B   100009305234909                                                                                                                                                                                                                
3990112300111A00070000103510 0000000333476 CAIO PELLIZZARI             014815401600010111    05082016R$                  0000000040000N                                                                                              0          
3990113300112B   100000869718916                                                                                                                                                                                                                
3990114300113A00070000104395 0000000118427 CAIO SEITI MIYOSHI          014777301600010113    05082016R$                  0000000040000N                                                                                              0          
3990115300114B   100007988387952                                                                                                                                                                                                                
3990116300115A00070034103835 0000000649272 CAIO SOUZA DO NASCIMENTO    014787001603410115    05082016R$                  0000000040000N                                                                                              0          
3990117300116B   100037651631803                                                                                                                                                                                                                
3990118300117A00070000102177 0000000152749 CAMILE SAKO                 014777701600010117    05082016R$                  0000000040000N                                                                                              0          
3990119300118B   100033319427822                                                                                                                                                                                                                
3990120300119A00070000102823 0000000353450 CAMILLA TAHOARA ARRIAGADA SO014765301600010119    05082016R$                  0000000040000N                                                                                              0          
3990121300120B   100005584063940                                                                                                                                                                                                                
3990122300121A00070023703364 0000000041904 CAMILLE PETRONCINI ZANETTE  014777201602370121    05082016R$                  0000000040000N                                                                                              0          
3990123300122B   100008914106942                                                                                                                                                                                                                
3990124300123A00070034100548 0000000456029 CARLA CRISTIANE DE ANDRADE P014775801603410123    05082016R$                  0000000040000N                                                                                              0          
3990125300124B   100003124349954                                                                                                                                                                                                                
3990126300125A00070010400586 0001000214898 CARMELIA CHAVES SOARES DOS S014807001601040125    05082016R$                  0000000040000N                                                                                              0          
3990127300126B   100039442292900                                                                                                                                                                                                                
3990128300127A00070000103184 0000000464031 CAROLINA EFING              014747901600010127    05082016R$                  0000000040000N                                                                                              0          
3990129300128B   100008855929992                                                                                                                                                                                                                
3990130300129A00070010400796 0001000226677 CAROLINA FANTIN CARNEIRO    014793301601040129    05082016R$                  0000000040000N                                                                                              0          
3990131300130B   100005400397999                                                                                                                                                                                                                
3990132300131A00070034103835 0000000408125 CAROLINA FAUST MACHADO      014783601603410131    05082016R$                  0000000040000N                                                                                              0          
3990133300132B   100009077442901                                                                                                                                                                                                                
3990134300133A00070023702762 0000000480657 CAROLINA GIEMBRA DE FARIAS  014764901602370133    05082016R$                  0000000040000N                                                                                              0          
3990135300134B   100009518804974                                                                                                                                                                                                                
3990136300135A00070023702248 0000000194328 CAROLINA GOMES DE ASSIS     014798201602370135    05082016R$                  0000000040000N                                                                                              0          
3990137300136B   100010295578963                                                                                                                                                                                                                
3990138300137A00070000104891 0000000053465 CAROLINA ITIMURA HAYAMA     014824101600010137    05082016R$                  0000000040000N                                                                                              0          
3990139300138B   100007235363924                                                                                                                                                                                                                
3990140300139A00070000104297 0000000206032 CAROLINA MARCELI DO COUTO   014813801600010139    05082016R$                  0000000040000N                                                                                              0          
3990141300140B   100009819064945                                                                                                                                                                                                                
3990142300141A00070003302190 0000010226229 CAROLINA MIOTTO SCHIONTEK   014814501600330141    05082016R$                  0000000040000N                                                                                              0          
3990143300142B   100007846508962                                                                                                                                                                                                                
3990144300143A00070000102803 0000000406350 CAROLINE ALVES MACHADO      014798801600010143    05082016R$                  0000000040000N                                                                                              0          
3990145300144B   100007070410905                                                                                                                                                                                                                
3990146300145A00070000100009 0000000642274 CAROLINE AZEVEDO AVILA      014771501600010145    05082016R$                  0000000040000N                                                                                              0          
3990147300146B   100009202144958                                                                                                                                                                                                                
3990148300147A00070000101347 0000000203319 CAROLINE NOVOCHADLO         014754301600010147    05082016R$                  0000000040000N                                                                                              0          
3990149300148B   100009831830903                                                                                                                                                                                                                
3990150300149A00070000100859 0000000249831 CESAR LEANDRO GREGORY       014793101600010149    05082016R$                  0000000040000N                                                                                              0          
3990151300150B   100004306611930                                                                                                                                                                                                                
3990152300151A00070034105956 0000000088115 CHRISTIAN LIMA DO NASCIMENTO014822601603410151    05082016R$                  0000000040000N                                                                                              0          
3990153300152B   100004522203942                                                                                                                                                                                                                
3990154300153A00070023706026 0000000031062 CINTHIA MARA FREITAS DE MELL014807701602370153    05082016R$                  0000000040000N                                                                                              0          
3990155300154B   100007828259905                                                                                                                                                                                                                
3990156300155A00070034103788 0000000596710 CORA KRESSIN ARRUDA D´AQUINO014793901603410155    05082016R$                  0000000040000N                                                                                              0          
3990157300156B   100001177622963                                                                                                                                                                                                                
3990158300157A00070034103822 0000000516054 DAIANE MARTINHUK            014808401603410157    05082016R$                  0000000040000N                                                                                              0          
3990159300158B   100008514413945                                                                                                                                                                                                                
3990160300159A00070000100996 0000000236780 DANDARA CRISTINA SANTIN     014752901600010159    05082016R$                  0000000040000N                                                                                              0          
3990161300160B   100000710055013                                                                                                                                                                                                                
3990162300161A000   39901748 0017480304518 DANIEL HENRIQUE DE OLIVEIRA 014834301603990161    05082016R$                  0000000040000N                                                                                              0          
3990163300162B   100009430509950                                                                                                                                                                                                                
3990164300163A00070034104018 0000000724833 DANIEL JOSE RIBAS           014854301603410163    05082016R$                  0000000040000N                                                                                              0          
3990165300164B   100007186600999                                                                                                                                                                                                                
3990166300165A00070000102456 0000000583715 DANIELA GABRIEL             014819801600010165    05082016R$                  0000000040000N                                                                                              0          
3990167300166B   100005994722944                                                                                                                                                                                                                
3990168300167A00070010403379 0001000258553 DANIELA TISONI              014763901601040167    05082016R$                  0000000040000N                                                                                              0          
3990169300168B   100007737426973                                                                                                                                                                                                                
3990170300169A00070000103792 0000000163660 DANIELE MORO SANTANA        014801701600010169    05082016R$                  0000000040000N                                                                                              0          
3990171300170B   100000772298947                                                                                                                                                                                                                
3990172300171A00070000105043 0000000050202 DANIELE SANTOS              014848501600010171    05082016R$                  0000000040000N                                                                                              0          
3990173300172B   100009224876935                                                                                                                                                                                                                
3990174300173A00070000103947 0000000088790 DEBORA DIANA SCHER          014787301600010173    05082016R$                  0000000040000N                                                                                              0          
3990175300174B   100007178909960                                                                                                                                                                                                                
3990176300175A00070000102266 0000000253480 DEBORA PAOLA CALAIS         014832301600010175    05082016R$                  0000000040000N                                                                                              0          
3990177300176B   100009259096960                                                                                                                                                                                                                
3990178300177A00070000100630 0000000268658 DEISY BRIGID DE ZORZI DALKE 014757001600010177    05082016R$                  0000000040000N                                                                                              0          
3990179300178B   100007351468966                                                                                                                                                                                                                
3990180300179A00070000100343 0000000269883 DHANNA ELIS FRANCISCO       014775001600010179    05082016R$                  0000000040000N                                                                                              0          
3990181300180B   100008080954984                                                                                                                                                                                                                
3990182300181A00070000101458 0000000258350 DIEGO AGAPITO DOS SANTOS    014766101600010181    05082016R$                  0000000040000N                                                                                              0          
3990183300182B   100010493544941                                                                                                                                                                                                                
3990184300183A00070000103262 0000000321249 DIEGO MENUZZI VIEIRA        014793401600010183    05082016R$                  0000000040000N                                                                                              0          
3990185300184B   100001059058952                                                                                                                                                                                                                
3990186300185A000   39901748 0017480225324 DIEILA GIOMO DE LIMA        014765701603990185    05082016R$                  0000000040000N                                                                                              0          
3990187300186B   100040373277830                                                                                                                                                                                                                
3990188300187A00070023702810 0000000202363 DIULI CLAIR DE OLIVEIRA PERA014768101602370187    05082016R$                  0000000040000N                                                                                              0          
3990189300188B   100008368158907                                                                                                                                                                                                                
3990190300189A00070003302256 0000010081113 DOMINIQUE BOLACH CAETANO    014754001600330189    05082016R$                  0000000040000N                                                                                              0          
3990191300190B   100004429690901                                                                                                                                                                                                                
3990192300191A00070000101243 0000000659410 DOUGLAS AUGUSTO FERNANDES CO014749301600010191    05082016R$                  0000000040000N                                                                                              0          
3990193300192B   100009207713942                                                                                                                                                                                                                
3990194300193A00070000100030 0000000868116 DOUGLAS VICENTINI UMEDA     014865901600010193    05082016R$                  0000000040000N                                                                                              0          
3990195300194B   100022819570801                                                                                                                                                                                                                
3990196300195A00070000103632 0000000139009 EDSON GONCALVES DA SILVA    014809501600010195    05082016R$                  0000000040000N                                                                                              0          
3990197300196B   100003633036938                                                                                                                                                                                                                
3990198300197A00070000101443 0000000294535 EDUARDO AUGUSTO DA SILVA LOP014793701600010197    05082016R$                  0000000040000N                                                                                              0          
3990199300198B   100006839717941                                                                                                                                                                                                                
3990200300199A00070000105223 0000003356752 EDUARDO BRAGA DA SILVA BAADE014807501600010199    05082016R$                  0000000040000N                                                                                              0          
3990201300200B   100008828794992                                                                                                                                                                                                                
3990202300201A00070000102823 0000000394190 EDUARDO DE OLIVEIRA RIBATSKI014772901600010201    05082016R$                  0000000040000N                                                                                              0          
3990203300202B   100008300315969                                                                                                                                                                                                                
3990204300203A00070034101656 0000000279666 EDUARDO MAURICIO MUELLER NIC014801301603410203    05082016R$                  0000000040000N                                                                                              0          
3990205300204B   100006230538962                                                                                                                                                                                                                
3990206300205A000   39901748 0017480288814 ELISA MARIA BERGONSE FERRO  014754801603990205    05082016R$                  0000000040000N                                                                                              0          
3990207300206B   100004821713918                                                                                                                                                                                                                
3990208300207A00070010401209 0013000116506 ELTON CRISTIANO BENFATTI    014778101601040207    05082016R$                  0000000040000N                                                                                              0          
3990209300208B   100021460235894                                                                                                                                                                                                                
3990210300209A00070000103509 0000000296805 ERIC TAKASHI TAKARADA       014805201600010209    05082016R$                  0000000040000N                                                                                              0          
3990211300210B   100007727222933                                                                                                                                                                                                                
3990212300211A00070000102457 0000000103942 ERICA MERLIM PERENTEL SILVA 014814601600010211    05082016R$                  0000000040000N                                                                                              0          
3990213300212B   100006066776908                                                                                                                                                                                                                
3990214300213A00070000108129 0000000091790 ERICA PADILHA               014747201600010213    05082016R$                  0000000040000N                                                                                              0          
3990215300214B   100008453191913                                                                                                                                                                                                                
3990216300215A00070003301649 0000010044506 ERICK GUSTAVO DE OLIVEIRA AL014819301600330215    05082016R$                  0000000040000N                                                                                              0          
3990217300216B   100007529870971                                                                                                                                                                                                                
3990218300217A00070034107454 0000000143970 ERIKA FRANCIELLY DA SILVA   014756701603410217    05082016R$                  0000000040000N                                                                                              0          
3990219300218B   100007767038971                                                                                                                                                                                                                
3990220300219A00070034101568 0000000209207 EZAN DORACI DA SILVA        014819601603410219    05082016R$                  0000000040000N                                                                                              0          
3990221300220B   100008205277931                                                                                                                                                                                                                
3990222300221A00070010403876 0001000221791 FABIANA ULIWIAK DE PAIVA    014768901601040221    05082016R$                  0000000040000N                                                                                              0          
3990223300222B   100001175048909                                                                                                                                                                                                                
3990224300223A00070000103007 0000000373052 FABIO RODRIGO NOGUEIRA      014825001600010223    05082016R$                  0000000040000N                                                                                              0          
3990225300224B   100008286339916                                                                                                                                                                                                                
3990226300225A00070000101182 0000000194956 FABIO TOFOLO REIS           014753901600010225    05082016R$                  0000000040000N                                                                                              0          
3990227300226B   100006036933690                                                                                                                                                                                                                
3990228300227A00070000103859 0000000546577 FELIPE DE OLIVEIRA SOUZA    014822901600010227    05082016R$                  0000000040000N                                                                                              0          
3990229300228B   100039691651807                                                                                                                                                                                                                
3990230300229A000   39900427 0004270022557 FELIPE DE SOUZA GUTIERRE    014787701603990229    05082016R$                  0000000040000N                                                                                              0          
3990231300230B   100007381032929                                                                                                                                                                                                                
3990232300231A00070000102920 0000000187348 FELIPE HARTCOPP BETONI      014780901600010231    05082016R$                  0000000040000N                                                                                              0          
3990233300232B   100000954806921                                                                                                                                                                                                                
3990234300233A00070034105443 0000000016166 FELIPPE HENRIQUE HAGIWARA DE014799101603410233    05082016R$                  0000000040000N                                                                                              0          
3990235300234B   100005866382962                                                                                                                                                                                                                
3990236300235A00070003300813 0000010111163 FERNANDA CRISTINE ROBASZKIEW014795701600330235    05082016R$                  0000000040000N                                                                                              0          
3990237300236B   100008042034903                                                                                                                                                                                                                
3990238300237A000   39900125 0001250125771 FERNANDA NOGUEZ DA SILVA SUM014756501603990237    05082016R$                  0000000040000N                                                                                              0          
3990239300238B   100007941394936                                                                                                                                                                                                                
3990240300239A00070000101998 0000000308919 FERNANDA RAFAELA KRAUSPENHAR014748301600010239    05082016R$                  0000000040000N                                                                                              0          
3990241300240B   100005074692164                                                                                                                                                                                                                
3990242300241A00070000101519 0000000586102 FILIPE BARROS MAIA          014748501600010241    05082016R$                  0000000040000N                                                                                              0          
3990243300242B   100001314624318                                                                                                                                                                                                                
3990244300243A00070003301649 0000010051791 FRANCIELE NUNES DA SILVA    014789601600330243    05082016R$                  0000000040000N                                                                                              0          
3990245300244B   100009613208933                                                                                                                                                                                                                
3990246300245A00070034108488 0000000005888 FRANCIELLE DE CASSIA COELHO 014821501603410245    05082016R$                  0000000040000N                                                                                              0          
3990247300246B   100007282957924                                                                                                                                                                                                                
3990248300247A00070034103796 0000000331100 GABRIEL ALCIDES CAPUCHO DE L014781101603410247    05082016R$                  0000000040000N                                                                                              0          
3990249300248B   100007915557980                                                                                                                                                                                                                
3990250300249A00070034103878 0000000027683 GABRIEL CHAVES BECCHI       014816401603410249    05082016R$                  0000000040000N                                                                                              0          
3990251300250B   100007859011913                                                                                                                                                                                                                
3990252300251A00070034101538 0000000095918 GABRIEL FERREIRA RIBEIRO    014792201603410251    05082016R$                  0000000040000N                                                                                              0          
3990253300252B   100013486863754                                                                                                                                                                                                                
3990254300253A00070034108411 0000000149803 GABRIEL FRITSCHE            014821601603410253    05082016R$                  0000000040000N                                                                                              0          
3990255300254B   100004986646940                                                                                                                                                                                                                
3990256300255A000   39901748 0017480352520 GABRIEL HENRIQUE CARVALHO DE014748201603990255    05082016R$                  0000000040000N                                                                                              0          
3990257300256B   100008702677954                                                                                                                                                                                                                
3990258300257A00070034103723 0000000258335 GABRIEL VIRGILIO CORREA MEND014828401603410257    05082016R$                  0000000040000N                                                                                              0          
3990259300258B   100041015232825                                                                                                                                                                                                                
3990260300259A00070034106663 0000000200092 GABRIELA BUENO RODRIGUES    014797801603410259    05082016R$                  0000000040000N                                                                                              0          
3990261300260B   100008685277930                                                                                                                                                                                                                
3990262300261A00070000100495 0000000494011 GABRIELA DAGIOS AMADORI     014747401600010261    05082016R$                  0000000040000N                                                                                              0          
3990263300262B   100007415779924                                                                                                                                                                                                                
3990264300263A00070000100349 0000000588180 GABRIELA REAL SIQUEIRA      014800001600010263    05082016R$                  0000000040000N                                                                                              0          
3990265300264B   100008359224994                                                                                                                                                                                                                
3990266300265A00070010403158 0023000009200 GABRIELLA EDUARDA JACOMEL   014766701601040265    05082016R$                  0000000040000N                                                                                              0          
3990267300266B   100008564314940                                                                                                                                                                                                                
3990268300267A00070034104122 0000000139399 GABRIELLE ANDRUSKO DOS SANTO014750201603410267    05082016R$                  0000000040000N                                                                                              0          
3990269300268B   100007908526918                                                                                                                                                                                                                
3990270300269A00070034101688 0000000464757 GABRIELLE LUISE DE OLIVEIRA 014749001603410269    05082016R$                  0000000040000N                                                                                              0          
3990271300270B   100006342830908                                                                                                                                                                                                                
3990272300271A00070000101426 0000000243566 GEOVANNI NYCOLACK ROCHA     014798701600010271    05082016R$                  0000000040000N                                                                                              0          
3990273300272B   100010344549941                                                                                                                                                                                                                
3990274300273A00070000100009 0000003616975 GIOVANNA ALVES DOS SANTOS   014768301600010273    05082016R$                  0000000040000N                                                                                              0          
3990275300274B   100006945507955                                                                                                                                                                                                                
3990276300275A00070000100695 0000000399434 GISELE MILLER TOMAZ         014792301600010275    05082016R$                  0000000040000N                                                                                              0          
3990277300276B   100006413556960                                                                                                                                                                                                                
3990278300277A00070000100830 0000000266310 GISLAINE ALEIXO DA COSTA    014761901600010277    05082016R$                  0000000040000N                                                                                              0          
3990279300278B   100008346026951                                                                                                                                                                                                                
3990280300279A00070000104297 0000000220302 GIULIA JAGER MAXIMOWICZ     014790801600010279    05082016R$                  0000000040000N                                                                                              0          
3990281300280B   100010247396940                                                                                                                                                                                                                
3990282300281A00070000104110 0000000105511 GUILHERME LUIZ BAZEI        014759801600010281    05082016R$                  0000000040000N                                                                                              0          
3990283300282B   100010015921905                                                                                                                                                                                                                
3990284300283A00070000103020 0000000385484 GUILHERME MARQUES GAWLOWSKI 014768401600010283    05082016R$                  0000000040000N                                                                                              0          
3990285300284B   100009695479944                                                                                                                                                                                                                
3990286300285A00070023701627 0000006318924 GUILHERME NAVES DE LIMA ALVE014772201602370285    05082016R$                  0000000040000N                                                                                              0          
3990287300286B   100001614832676                                                                                                                                                                                                                
3990288300287A00070000101467 0000000418510 GUSTAVO BAVARESCO           014776001600010287    05082016R$                  0000000040000N                                                                                              0          
3990289300288B   100007967327950                                                                                                                                                                                                                
3990290300289A00070000103041 0000000259322 HEITOR AUGUSTO SANTOS FERREI014867301600010289    05082016R$                  0000000040000N                                                                                              0          
3990291300290B   100007156534904                                                                                                                                                                                                                
3990292300291A00070000104297 0000000080292 HELINGTON CASTRO KRUGER     014750301600010291    05082016R$                  0000000040000N                                                                                              0          
3990293300292B   100007172449975                                                                                                                                                                                                                
3990294300293A000   39900123 0001230215864 HELOISE BUSS MORVAN         014748001603990293    05082016R$                  0000000040000N                                                                                              0          
3990295300294B   100008843663917                                                                                                                                                                                                                
3990296300295A00070000101876 0000000464333 HUGO AGUIAR DE SOUZA NICOLLI014804901600010295    05082016R$                  0000000040000N                                                                                              0          
3990297300296B   100005592357982                                                                                                                                                                                                                
3990298300297A000   39901748 0017480258940 IAZANA GARCIA CUSTODIO      014806401603990297    05082016R$                  0000000040000N                                                                                              0          
3990299300298B   100007502739920                                                                                                                                                                                                                
3990300300299A00070000102327 0000000119601 ICARO CAMARGO AZAMBUJA      014828201600010299    05082016R$                  0000000040000N                                                                                              0          
3990301300300B   100007736353948                                                                                                                                                                                                                
3990302300301A00070034108411 0000000151619 ICARO ZAGROBELNY MOURA      014800701603410301    05082016R$                  0000000040000N                                                                                              0          
3990303300302B   100009437873941                                                                                                                                                                                                                
3990304300303A00070023701205 0000000051780 ILDEMAR LUIS MORO VIANNA JUN014843201602370303    05082016R$                  0000000040000N                                                                                              0          
3990305300304B   100006939763902                                                                                                                                                                                                                
3990306300305A00070034103793 0000000268222 INGRA TAIS MALACARNE        014753501603410305    05082016R$                  0000000040000N                                                                                              0          
3990307300306B   100008951327965                                                                                                                                                                                                                
3990308300307A00070034103835 0000000690698 IRAILSON CUBA DE SOUZA JUNIO014784301603410307    05082016R$                  0000000040000N                                                                                              0          
3990309300308B   100008642704969                                                                                                                                                                                                                
3990310300309A00070003300810 0000010107383 ISABELA DE CARVALHO CROZETTA014753301600330309    05082016R$                  0000000040000N                                                                                              0          
3990311300310B   100009359860905                                                                                                                                                                                                                
3990312300311A00070000103849 0000000300624 ISABELA MAIARA DA CRUZ GABRI014754101600010311    05082016R$                  0000000040000N                                                                                              0          
3990313300312B   100009818038908                                                                                                                                                                                                                
3990314300313A00070000103051 0000000279790 ISABELE DA VEIGA MORO       014835901600010313    05082016R$                  0000000040000N                                                                                              0          
3990315300314B   100010433748923                                                                                                                                                                                                                
3990316300315A00070010400406 0001000396635 ISABELLA FRANGI BASSANI     014833301601040315    05082016R$                  0000000040000N                                                                                              0          
3990317300316B   100005260406966                                                                                                                                                                                                                
3990318300317A00070010400393 0001000208414 ISADORA MACHADO WILLE       014778401601040317    05082016R$                  0000000040000N                                                                                              0          
3990319300318B   100008729232902                                                                                                                                                                                                                
3990320300319A00070034107222 0000000043908 ISMAEL HIGOR CARDOSO DUARTE 014792501603410319    05082016R$                  0000000040000N                                                                                              0          
3990321300320B   100007952823973                                                                                                                                                                                                                
3990322300321A00070034108614 0000000411695 IVAN SAAD KOSCHELNY         014780701603410321    05082016R$                  0000000040000N                                                                                              0          
3990323300322B   100008982649956                                                                                                                                                                                                                
3990324300323A00070000102100 0000000200611 IZABELA MARA FOGIATO        014842501600010323    05082016R$                  0000000040000N                                                                                              0          
3990325300324B   100007273539937                                                                                                                                                                                                                
3990326300325A00070023700429 0000000259047 IZABELA MOZZER              014758801602370325    05082016R$                  0000000040000N                                                                                              0          
3990327300326B   100009724782999                                                                                                                                                                                                                
3990328300327A00070003301012 0000010044700 IZABELE PEIXOTO             014784901600330327    05082016R$                  0000000040000N                                                                                              0          
3990329300328B   100008491643974                                                                                                                                                                                                                
3990330300329A00070034103833 0000000285715 IZABELLA BONDI SARTORI      014774701603410329    05082016R$                  0000000040000N                                                                                              0          
3990331300330B   100005450496958                                                                                                                                                                                                                
3990332300331A00070000100208 0000000149373 IZADORA BATISTA CUSTODIO CAR014813301600010331    05082016R$                  0000000040000N                                                                                              0          
3990333300332B   100001282011189                                                                                                                                                                                                                
3990334300333A00070034100633 0000000573357 JACQUELINE PRADO ZELLNER    014828001603410333    05082016R$                  0000000040000N                                                                                              0          
3990335300334B   100007416541999                                                                                                                                                                                                                
3990336300335A00070000103512 0000000340197 JAQUELINE RAFAELA CONSTANTIN014859601600010335    05082016R$                  0000000040000N                                                                                              0          
3990337300336B   100006594796992                                                                                                                                                                                                                
3990338300337A00070000101432 0000000316369 JEAN CARLO JACICHEN LUZ     014798001600010337    05082016R$                  0000000040000N                                                                                              0          
3990339300338B   100009282614921                                                                                                                                                                                                                
3990340300339A00070000105047 0000000054836 JESSICA CANDIDO FERREIRA    014799601600010339    05082016R$                  0000000040000N                                                                                              0          
3990341300340B   100039563617843                                                                                                                                                                                                                
3990342300341A00070003303114 0000010824251 JESSICA DE MORAIS SEIXAS    014785201600330341    05082016R$                  0000000040000N                                                                                              0          
3990343300342B   100008445272977                                                                                                                                                                                                                
3990344300343A00070003303335 0000010915534 JESSICA MAIRA TELLES DE SOUZ014750801600330343    05082016R$                  0000000040000N                                                                                              0          
3990345300344B   100009330210970                                                                                                                                                                                                                
3990346300345A00070023700023 0000002561115 JESSICA QUEIROZ SOARES      014796901602370345    05082016R$                  0000000040000N                                                                                              0          
3990347300346B   100007277648617                                                                                                                                                                                                                
3990348300347A000   39900358 0003580252820 JOAO HENRIQUE FREGADOLLI FER014795401603990347    05082016R$                  0000000040000N                                                                                              0          
3990349300348B   100008748350974                                                                                                                                                                                                                
3990350300349A000   39900003 0000030530490 JOAO MANOEL RODRIGUES MANENT014771301603990349    05082016R$                  0000000040000N                                                                                              0          
3990351300350B   100040913867845                                                                                                                                                                                                                
3990352300351A00070000104444 0000000094021 JOAO PAULO JOSVIAK DRESCH   014862401600010351    05082016R$                  0000000040000N                                                                                              0          
3990353300352B   100007136687926                                                                                                                                                                                                                
3990354300353A000   39901748 0017480185870 JOHNNY GIL MELCHIADES       014821701603990353    05082016R$                  0000000040000N                                                                                              0          
3990355300354B   100006905054933                                                                                                                                                                                                                
3990356300355A000   39901811 0018111677958 JOHNY WESLEY BARBOSA VARGAS 014820201603990355    05082016R$                  0000000040000N                                                                                              0          
3990357300356B   100006231400980                                                                                                                                                                                                                
3990358300357A000   39901748 0017480363115 JOSE AUGUSTO DA SILVA DE CAR014805101603990357    05082016R$                  0000000040000N                                                                                              0          
3990359300358B   100005514415937                                                                                                                                                                                                                
3990360300359A00070034100548 0000000390020 JOSE CARLOS CERVI           014760501603410359    05082016R$                  0000000040000N                                                                                              0          
3990361300360B   100066418402987                                                                                                                                                                                                                
3990362300361A00070003303415 0000010931214 JOSE MONTEIRO DA GAMA TETRAN014762401600330361    05082016R$                  0000000040000N                                                                                              0          
3990363300362B   100006413350911                                                                                                                                                                                                                
3990364300363A00070010403414 0001000002396 JOSE RICARDO FERREIRA       014800801601040363    05082016R$                  0000000040000N                                                                                              0          
3990365300364B   100001778593933                                                                                                                                                                                                                
3990366300365A00070000103262 0000000228044 JOYCE FUCKNER LEONEL        014781601600010365    05082016R$                  0000000040000N                                                                                              0          
3990367300366B   100007470857907                                                                                                                                                                                                                
3990368300367A00070000100587 0000000559628 JULIA AUTH                  014749101600010367    05082016R$                  0000000040000N                                                                                              0          
3990369300368B   100007225559974                                                                                                                                                                                                                
3990370300369A00070000100009 0000003667723 JULIA MARIA AGUIAR SPINICCI 014795801600010369    05082016R$                  0000000040000N                                                                                              0          
3990371300370B   100009804823993                                                                                                                                                                                                                
3990372300371A00070034100615 0000000080397 JULIA MEZAROBBA             014788501603410371    05082016R$                  0000000040000N                                                                                              0          
3990373300372B   100007618495998                                                                                                                                                                                                                
3990374300373A00070034109313 0000000533748 JULIA OLSTAN SALOMAO        014820601603410373    05082016R$                  0000000040000N                                                                                              0          
3990375300374B   100005166510992                                                                                                                                                                                                                
3990376300375A00070000103142 0000000173673 JULIA TIE SAKURAI           014824201600010375    05082016R$                  0000000040000N                                                                                              0          
3990377300376B   100007251830981                                                                                                                                                                                                                
3990378300377A00070000103262 0000000256943 JULIANA DA SILVEIRA         014791201600010377    05082016R$                  0000000040000N                                                                                              0          
3990379300378B   100007743884988                                                                                                                                                                                                                
3990380300379A00070000103007 0000000405159 JULIANA MAFRA DE OLIVEIRA   014785901600010379    05082016R$                  0000000040000N                                                                                              0          
3990381300380B   100009101332988                                                                                                                                                                                                                
3990382300381A000   39901748 0017480305883 JULIANA MARA PADILHA        014749801603990381    05082016R$                  0000000040000N                                                                                              0          
3990383300382B   100009944708941                                                                                                                                                                                                                
3990384300383A00070000102823 0000002104970 JULIANA PADILHA DE SOUZA    014817901600010383    05082016R$                  0000000040000N                                                                                              0          
3990385300384B   100005653842958                                                                                                                                                                                                                
3990386300385A00070000101876 0000000384607 JULIO CEZAR DA CRUZ         014765501600010385    05082016R$                  0000000040000N                                                                                              0          
3990387300386B   100087771187900                                                                                                                                                                                                                
3990388300387A00070000102926 0000000284297 JULYANA FIORIN              014813601600010387    05082016R$                  0000000040000N                                                                                              0          
3990389300388B   100009823120919                                                                                                                                                                                                                
3990390300389A00070000101433 0000000538043 KARINA DE OLIVEIRA MULLER FE014759201600010389    05082016R$                  0000000040000N                                                                                              0          
3990391300390B   100034762488879                                                                                                                                                                                                                
3990392300391A00070010403397 0023000049260 KARINE SANTOS FRASQUETTI    014767001601040391    05082016R$                  0000000040000N                                                                                              0          
3990393300392B   100008843459988                                                                                                                                                                                                                
3990394300393A00070023702022 0000000451800 KASSIO HOINSKI FILIPAK      014803701602370393    05082016R$                  0000000040000N                                                                                              0          
3990395300394B   100001035353903                                                                                                                                                                                                                
3990396300395A00070000103849 0000000216887 KATHLYN DO ESPIRITO SANTO   014751401600010395    05082016R$                  0000000040000N                                                                                              0          
3990397300396B   100009421961986                                                                                                                                                                                                                
3990398300397A00070003300809 0000010119106 KATHYLIN FIOROTTI DA SILVA B014750001600330397    05082016R$                  0000000040000N                                                                                              0          
3990399300398B   100008977451914                                                                                                                                                                                                                
3990400300399A00070034103730 0000000457797 KATIELI PEREIRA             014756201603410399    05082016R$                  0000000040000N                                                                                              0          
3990401300400B   100008947695963                                                                                                                                                                                                                
3990402300401A00070003304297 0000010748662 KAUANA DE AZEVEDO GUIMARAES 014799801600330401    05082016R$                  0000000040000N                                                                                              0          
3990403300402B   100008308291996                                                                                                                                                                                                                
3990404300403A00070034104014 0000000647749 KAYURI FEDATTO              014796001603410403    05082016R$                  0000000040000N                                                                                              0          
3990405300404B   100006932180960                                                                                                                                                                                                                
3990406300405A00070034100616 0000000307161 KELLY KAROLINE DOS SANTOS   014766401603410405    05082016R$                  0000000040000N                                                                                              0          
3990407300406B   100009632791908                                                                                                                                                                                                                
3990408300407A00070034100616 0000000486171 KEMILLY POSSOLI DE SOUZA    014828301603410407    05082016R$                  0000000040000N                                                                                              0          
3990409300408B   100008448048946                                                                                                                                                                                                                
3990410300409A00070000100756 0000000673684 KHAREN KELM HERBST          014772501600010409    05082016R$                  0000000040000N                                                                                              0          
3990411300410B   100007022258945                                                                                                                                                                                                                
3990412300411A00070000100476 0000000295850 KHAUANY MARQUES DARDENGO    014785101600010411    05082016R$                  0000000040000N                                                                                              0          
3990413300412B   100009923337928                                                                                                                                                                                                                
